:100000000C9490000C94B8000C94B8000C94B800B8
:100010000C94B8000C94B8000C94B8000C94B80080
:100020000C94B8000C94B8000C94B8000C94B80070
:100030000C94B8000C94B8000C94B8000C94B80060
:100040000C94F61D0C94B8000C9451030C942B03E3
:100050000C94B8000C94B8000C94B8000C94B80040
:100060000C949A040C94B8007B097E0983098609D4
:1000700089098C098F099209950998099B099E099C
:10008000A309A809AD09B209CB09CE09D309D6093C
:10009000D909DC09DF09E209E509E809EB09EE09FC
:1000A000F109F409F909FE09030A080A0D0A120AFE
:1000B000840B310A5E0A8C0AAC0AC70AF60A1E0BC8
:1000C000350B5D0B04040404040404040202020260
:1000D000020203030303030301020408102040800B
:1000E0000102040810200102040810200000000092
:1000F000240027002A0000000000250028002B0013
:100100000000000023002600290000000008000273
:100110000100000304070000000000000000BA30E6
:1001200011241FBECFEFD8E0DEBFCDBF13E0A0E0AB
:10013000B1E0EAEFF1E702C005900D92A83DB107EA
:10014000D9F726E0A8EDB3E001C01D92A63FB207A3
:10015000E1F710E0C0E9D0E004C02197FE010E9461
:100160006D36CF38D107C9F70E94401E0C94FB387A
:100170000C940000CF92DF92EF92FF920F931F93A7
:10018000CF93DF936C017A018B01C0E0D0E0CE15F4
:10019000DF0581F0D8016D918D01D601ED91FC91C3
:1001A0000190F081E02DC6010995892B11F021966F
:1001B000EECF7E01C701DF91CF911F910F91FF908C
:1001C000EF90DF90CF900895FC01538D448D252F43
:1001D00030E0842F90E0821B930B541710F0CF96E1
:1001E000089501970895FC01918D828D981761F013
:1001F000828DDF01A80FB11D5D968C91928D9F5F5E
:100200009F73928F90E008958FEF9FEF0895FC0108
:10021000918D828D981731F0828DE80FF11D858DBB
:1002200090E008958FEF9FEF0895FC01918D228D4E
:10023000892F90E0805C9F4F821B91098F739927D3
:10024000089588EF94E00E94150121E0892B09F4BC
:1002500020E0822F0895FC01848DDF01A80FB11DDD
:10026000A35ABF4F2C91848D90E001968F739927EC
:10027000848FA689B7892C93A089B1898C918370CA
:1002800080648C93938D848D981306C00288F389C3
:10029000E02D80818F7D80830895EF92FF920F93F0
:1002A0001F93CF93DF93EC0181E0888F9B8D8C8D22
:1002B000981305C0E889F989808185FD26C0F62E4E
:1002C0000B8D10E00F5F1F4F0F731127E02E8C8DE9
:1002D000E8120CC00FB607FCFACFE889F9898081D3
:1002E00085FFF5CFCE010E942B01F1CF8B8DFE0152
:1002F000E80FF11DE35AFF4FF0829FB7F8940B8F80
:10030000EA89FB89808180620AC09FB7F894EE89F0
:10031000FF896083E889F9898081837080648083A4
:100320009FBF81E090E0DF91CF911F910F91FF90EF
:10033000EF900895CF93DF93EC01888D8823C9F067
:10034000EA89FB89808185FD05C0A889B9898C91DE
:1003500086FD0FC00FB607FCF5CF808185FFF2CF79
:10036000A889B9898C9185FFEDCFCE010E942B0120
:10037000E7CFDF91CF91089580E090E0892B29F0BD
:100380000E94210181110C940000089585ED809355
:10039000BC008091BC0084FDFCCF1092BC06089587
:1003A0004091D504262F30E0240F311D2132310534
:1003B000DCF42091BC062430C9F4FC0180E090E01C
:1003C000861758F43091D5042191DC01AB54BB4F12
:1003D000A30FB11D2C930196F3CF8091D504680F24
:1003E0006093D50480E0089581E0089582E0089547
:1003F000089508950895E091DD038091DC03E817E6
:1004000030F4F0E0EB56FB4F808190E008958FEFE1
:100410009FEF08959091DD038091DC03981750F4CD
:10042000E92FF0E0EB56FB4F208130E09F5F909387
:10043000DD0302C02FEF3FEFC90108958091DC0377
:1004400090E02091DD03821B91090895CF92DF9205
:10045000EF92FF920F931F93CF93DF937C01CB0119
:100460008A012091BD06222389F0EB016B01C40EA5
:10047000D51ECC15DD0569F06991D701ED91FC9190
:100480000190F081E02DC7010995F3CF642F0E9400
:10049000D001C801DF91CF911F910F91FF90EF9094
:1004A000DF90CF900895CF93DF931F92CDB7DEB743
:1004B00069832091BD062223D1F02091E0062032ED
:1004C00040F021E030E0FC013383228380E090E0C3
:1004D00015C08091BE06E82FF0E0E154F94F9981F4
:1004E00090838F5F8093BE068093E00605C061E035
:1004F000CE0101960E94D00181E090E00F90DF9143
:10050000CF910895089580E090E008950E94F63814
:10051000CF92DF92EF92FF920F931F93CF937C01C4
:100520008A01C22FFC0184A991E09093BD068093BB
:10053000DF061092BE061092E00685E995E00E9463
:10054000530281E00E9405148091BC068111FCCF0A
:10055000F70194A98C2FC13208F080E221E02093AA
:10056000BC062093BB063FEF3093BA061092B90643
:10057000380F3093B8062093970620919706990F6D
:10058000922B9093970690919606913061F4109279
:100590009606909197069093BB009091BC0093FDB6
:1005A000F8CF95EC01C095EE9093BC009091BC06FD
:1005B0009130E1F39091B906981710F48091B90643
:1005C000A8E9B6E0E5E9F4E090E0981721F02D9174
:1005D00021939F5FFACF1092DD039093DC0390E0AC
:1005E0002091DC038091DD03281771F0FF24F39440
:1005F000F90E6801C90ED11C85E995E00E940A0236
:10060000F60180839F2DECCF81E09C1380E0CF9199
:100610001F910F91FF90EF90DF90CF900895CF93AF
:10062000C42FFC0184A991E09093BD068093DF065E
:100630001092BE061092E00685E995E00E945302F2
:100640006C2F85E995E00E94530281E00E94051419
:1006500081E0CF9108951F920F920FB60F9211244F
:100660002F933F934F935F936F937F938F939F93BA
:10067000AF93BF93EF93FF9388EF94E00E942B0119
:10068000FF91EF91BF91AF919F918F917F916F916A
:100690005F914F913F912F910F900FBE0F901F9040
:1006A00018951F920F920FB60F9211242F938F93CC
:1006B0009F93EF93FF93E0910805F09109058081E6
:1006C000E0910E05F0910F0582FD12C0908180919E
:1006D00011058F5F8F7320911205821751F0E09101
:1006E0001105F0E0E850FB4F958F8093110501C094
:1006F0008081FF91EF919F918F912F910F900FBE6D
:100700000F901F901895CF92DF92EF92FF920F9368
:100710001F93CF93DF93EC01898182FD35C085FD66
:1007200033C02A8130E0F901E65FFE4F8491F90180
:10073000E852FF4F0491F901EC53FF4F149111233C
:10074000A1F081110E946114E12FF0E0EE0FFF1F74
:10075000E050FF4FA591B491EC91E02331E020E00F
:1007600009F430E0832F922F02C080E090E02981CD
:1007700021FB332730F923FB222720F9232731E0FF
:100780008327817082278A8B0E94A015AB01BC0150
:100790009A892B898881992301F121111EC080FD3E
:1007A00002C081605CC00E851F85288939896A0175
:1007B0007B01C01AD10AE20AF30A0B811C8120E0F6
:1007C00030E0C016D106E206F30608F44DC091E011
:1007D0009B8B80628068888328C08E7F888391117C
:1007E0001FC0222309F440C01B8A81FD03C08B85F2
:1007F0008F5F8B8788818D7F806188834E875F873D
:10080000688B798B86FF04C01C861B868F7B888350
:10081000888187FF29C08F77888389818160898358
:100820008B89882309F19923F9F08E859F85A88902
:10083000B9898A019B01081B190B2A0B3B0B8D817F
:100840009E81A0E0B0E0081719072A073B0760F077
:10085000888181FD09C09B859D878A648F77888305
:100860004E875F87688B798B8E859F85A889B9892C
:10087000481B590B6A0B7B0B8F819885A0E0B0E079
:10088000481759076A077B0740F08B85882329F0B2
:100890008C871B86888184608883DF91CF911F912C
:1008A0000F91FF90EF90DF90CF900895CF93DF935B
:1008B000EC01898184FF03C0CE010E9483039881EB
:1008C00092FB882780F992FF08C02C85223021F402
:1008D0009B7F98831C8601C080E0DF91CF910895B3
:1008E000CF93DF93EC01898184FF03C0CE010E9486
:1008F0008303988192FB882780F992FF08C02C859A
:10090000213021F41C869B7F988301C080E0DF9119
:10091000CF910895CF93DF93EC01898184FF03C0C9
:10092000CE010E948303888186FB882780F9DF91AE
:10093000CF9108951F920F920FB60F9211242F930B
:100940003F934F935F936F937F938F939F93AF9357
:10095000BF93EF93FF938091B900887F803609F4AD
:100960009CC068F5883209F45BC090F4803109F4CA
:1009700054C038F4882309F4F6C0883009F44DC017
:10098000F6C0883109F44CC0803209F45DC0EFC074
:10099000803409F468C048F4803309F455C08833C2
:1009A00009F0E5C08093BA06D8C0803509F44FC07D
:1009B000883509F45DC0883409F0D9C0D6C08839BB
:1009C00009F4C7C0A8F4883709F467C038F488363A
:1009D00009F463C0803709F460C0C9C0883809F4DD
:1009E000B8C0803909F45FC0803809F0C0C05BC06E
:1009F000803B09F486C038F4803A09F466C0883A2E
:100A000009F47FC0B4C0803C09F4A7C0883C09F455
:100A1000A4C0883B09F48AC0AAC08091970610C080
:100A20009091B9068091B806981770F5E091B906D3
:100A300081E08E0F8093B906F0E0E856F94F80818F
:100A40008093BB0085EC86C08093BA068EC0E0918F
:100A5000B90681E08E0F8093B9068091BB00F0E06B
:100A6000E856F94F80839091B9068091B8066EC020
:100A7000E091B90681E08E0F8093B9068091BB00AA
:100A8000F0E0E856F94F80838091BB0681116DC07C
:100A900081E08093960684EA61C083E08093BC067F
:100AA0001092F704CFCF8091F704803208F051C044
:100AB000E091F70481E08E0F8093F7048091BB00F2
:100AC000F0E0E952FB4F8083BDCF85EC8093BC0002
:100AD0001092BC068091F704803230F4E091F70464
:100AE000F0E0E952FB4F10826091F70470E0E09172
:100AF000D803F091D90387ED94E009951092F7049B
:100B000036C084E08093BC061092D6041092D504BF
:100B1000E091DA03F091DB0309958091D50481110E
:100B200005C081E08093D5041092B504E091D6040D
:100B300081E08E0F8093D604F0E0EB54FB4F808170
:100B40008093BB009091D6048091D504981708F447
:100B500079CF85E88093BC000AC085EC8093BC0007
:100B60001092BC0604C01092BA060E94C601FF9102
:100B7000EF91BF91AF919F918F917F916F915F9115
:100B80004F913F912F910F900FBE0F901F9018958E
:100B90000F931F93CF93DF93EC018A81982F929547
:100BA000990F907E8E81880F880F892B0885082BDE
:100BB0008A85982F9295990F907E8C85880F880F43
:100BC000892B1E85182BE881F9810280F381E02DA5
:100BD0004C8162EFCE010995E881F9810280F381B1
:100BE000E02D402F64EFCE010995E881F981028064
:100BF000F381E02D412F65EFCE01DF91CF911F9161
:100C00000F910994FF920F931F93CF93DF931F923D
:100C1000CDB7DEB78C01DC01ED91FC910480F5814C
:100C2000E02D21E0AE014F5F5F4F60ED09958981B6
:100C3000883541F0803671F420E630E0F80132ABBF
:100C400021AB0DC028E530E0D801D2963C932E931D
:100C5000D19705C0F80112AA11AAF12C3EC0D80103
:100C6000D0968C93D097ED91FC910480F581E02D86
:100C700026E0A801405F5F4F68E8C8010995F82E9B
:100C8000D801ED91FC910480F581E02D22E1A801CD
:100C90004A5E5F4F6EE8C8010995F822D801ED91D0
:100CA000FC910480F581E02D21E0A801485D5F4FB3
:100CB00061EAC8010995F822D801ED91FC91048000
:100CC000F581E02D27E0A801475D5F4F61EEC80187
:100CD0000995F822C8010E94C805F801F3AA8F2DD2
:100CE0000F90DF91CF911F910F91FF9008950C9479
:100CF0007B348F929F92AF92BF92CF92DF92EF920E
:100D0000FF920F931F93CF93DF937B018A016AE0D9
:100D100070E00E9459369C0196E0969FE001979FF3
:100D2000D00D1124C754DD4F929F6001939FD00CCA
:100D30001124812C912CAA24BB24A01AB10AF601FB
:100D4000E80DF91DE754FD4F408142954F708991A0
:100D50009FEF891A990A482B50E0101611063CF4AF
:100D6000002E02C0559547950A94E2F705C00A2C5B
:100D700001C0440F0A94EAF7B401C7010E94C10BF5
:100D800086E088169104D9F6DF91CF911F910F91DB
:100D9000FF90EF90DF90CF90BF90AF909F908F909B
:100DA00008958F929F92AF92BF92CF92DF92EF926F
:100DB000FF920F931F93CF93DF934A01EB0124E03F
:100DC000880F991F2A95E1F78C0107511E4F6B017F
:100DD00088E0C80ED11CAA24BB24A41AB50AE12CB1
:100DE000F12CF801EE0DFF1D40811814190444F494
:100DF00050E0082C02C0559547950A94E2F705C0CB
:100E00000A2C01C0440F0A94EAF7B701CE010E94F0
:100E1000C10B8FEFE81AF80A88E0E816F10409F729
:100E20002496085F1F4FCC15DD05C9F6DF91CF91E1
:100E30001F910F91FF90EF90DF90CF90BF90AF90F8
:100E40009F908F900895CF92DF92EF92FF920F9331
:100E50001F93CF93DF93EC017B018A01CB010496B2
:100E60006C0120E0AE0160E070E008301105B4F4E0
:100E70000E94430C67E070E0601B710B21E0AE0143
:100E8000C7010E94430C0115110529F168E070E0CB
:100E9000601B710B20E0AE01C70113C0C7010E94A7
:100EA000430C6EE070E0601B710B21E0AE01C601E7
:100EB0000E94430C6FE070E0601B710B20E0AE01FC
:100EC000C601DF91CF911F910F91FF90EF90DF90BE
:100ED000CF900C94430CDF91CF911F910F91FF9015
:100EE000EF90DF90CF900895BF92CF92DF92EF9274
:100EF000FF920F931F93CF93DF93B82EC0E0D0E003
:100F0000C42ED12CE22EF12C062F10E0A6014C0F9E
:100F10005D1F2B2DB701C8010E94430C64E170E0F6
:100F200080E090E00E9466152196C330D10571F7EC
:100F3000DF91CF911F910F91FF90EF90DF90CF90B5
:100F4000BF900895BF92CF92DF92EF92FF920F93DE
:100F50001F93CF93DF93B82EC2E0D0E0C42ED12CE4
:100F6000E22EF12C062F10E0A6014C0F5D1F2B2D59
:100F7000B701C8010E94430C64E170E080E090E09A
:100F80000E946615219780F7DF91CF911F910F91F5
:100F9000FF90EF90DF90CF90BF900895BF92CF92D7
:100FA000DF92EF92FF920F931F93CF93DF93B82EB0
:100FB000C6E0D0E0E42EF12CC22ED12C062F10E09A
:100FC000B6016C0F7D1F2B2DA701C8010E94430C99
:100FD00064E170E080E090E00E946615219780F760
:100FE000DF91CF911F910F91FF90EF90DF90CF9005
:100FF000BF9008959F92AF92BF92CF92DF92EF92EF
:10100000FF920F931F93CF93DF93982EC0E0D0E011
:1010100010E0C42ED12CA22EB12CE62EF12CC0173C
:10102000D10784F4B5016C0F7D1F292DA601C701DE
:101030000E94430C64E170E080E090E00E9466153D
:101040002196EDCFDF91CF911F910F91FF90EF90FF
:10105000DF90CF90BF90AF909F9008958F929F9216
:10106000AF92BF92CF92DF92EF92FF921F93CF93F6
:10107000DF93C0901B06D0901C06E0901D06F090F8
:101080001E060E94A0156C157D058E059F0540F477
:1010900010921B0610921C0610921D0610921E063E
:1010A0002091190630911A062115310519F40E9474
:1010B0007C12AFC080911B0690911C06A0911D066A
:1010C000B0911E060097A105B10589F36C017D0161
:1010D000C20ED31EE11CF11C0E94A0156C157D05EB
:1010E0008E059F0520F70E94A015C0901B06D0908A
:1010F0001C06E0901D06F0901E066C197D098E09F5
:101100009F0928EE33E040E050E00E94F234D09195
:10111000100610911106D23009F0ADC0812F90E079
:1011200083709927892B09F4A1C0CCE180910C062A
:1011300049015A01880E911CA11CB11CC501B401C2
:101140002CE3C22ED12CE12CF12CA70196010E9498
:10115000F2346093F90580910D0649015A01880E19
:10116000911CA11CB11CC501B401A70196010E94EC
:10117000F2346093FA0580910E0659016A01A80EB7
:10118000B11CC11CD11CC601B50128E130E040E012
:1011900050E00E94F2346093FC0580911206820FA9
:1011A000873008F065C08093FF0580910F066901C4
:1011B0007A01C80ED11CE11CF11CC701B6012C2F0D
:1011C00030E02F5F3F4F032E000C440B550B0E9465
:1011D000F234620F6093FE05CA01B9016D0F711DF3
:1011E000811D911D2DE030E040E050E00E94F2347E
:1011F000620F60930006CA01B901610F711D811D64
:10120000911D24E630E040E050E00E94F23460930B
:1012100001062091FC05822F6CE00E944D36911151
:1012200001C09CE09093FB0581E02C3008F480E045
:101230008093FD0580910406909105060E946D380B
:1012400081E090E00E94D5379093050680930406D4
:10125000FC011082DF91CF911F91FF90EF90DF9002
:10126000CF90BF90AF909F908F900895CDE15ECFCB
:101270001092FF059ACF81E090E0D83010F480E022
:1012800090E08D0F911D81709927CEE1C80F4ECF50
:101290000F931F93CF938C01C62F21E043E050E0C2
:1012A00063E070E084E090E00E94430C21E044E0C1
:1012B00050E063E070E084E090E00E94430C21E0A5
:1012C00043E050E064E070E084E090E00E94430C72
:1012D00021E044E050E064E070E084E090E00E94AF
:1012E000430C0031110508F048C0F801EC5CFF4FD9
:1012F0002C2F0C946D3642E050E002C043E050E0E9
:1013000061E070E033C044E050E0FACF45E050E0E7
:10131000F7CF46E050E028C046E050E020C046E06D
:1013200050E018C046E050E010C045E050E008C072
:1013300044E050E005C043E050E002C042E050E02D
:1013400066E070E013C041E050E065E070E00EC080
:1013500041E050E064E070E009C041E050E063E04B
:1013600070E004C041E050E062E070E084E090E0B2
:10137000CF911F910F910C94430CCF911F910F911E
:101380000895262F8431910508F054C0FC01EC5BD0
:10139000FF4F0C946D3642E050E002C043E050E055
:1013A00060E070E043C044E050E0FACF45E050E038
:1013B000F7CF46E050E038C047E050E030C047E0AB
:1013C00050E028C047E050E020C047E050E018C09F
:1013D00046E050E010C045E050E008C044E050E076
:1013E00005C043E050E002C042E050E067E070E03A
:1013F0001DC041E050E066E070E018C040E050E001
:1014000065E070E013C040E050E064E070E00EC0C2
:1014100040E050E063E070E009C040E050E062E08E
:1014200070E004C041E050E061E070E084E090E0F2
:101430000C94430C0895AF92BF92DF92EF92FF920B
:101440000F931F93CF93DF936A30710508F08FC11C
:10145000D32ED22F7A01C82FFB01E85AFF4F0C94EC
:101460006D3601E010E05A0184E0A80EB11C2C2F6B
:101470004D2F5D2DB801C5010E94430C64E170E061
:1014800080E090E00E9466150F5F1F4F0830110545
:1014900071F700E010E02C2F4D2F5D2DB801C70132
:1014A0000E94430C64E170E080E090E00E946615C9
:1014B0000F5F1F4F0730110571F759C11FEF120F52
:1014C00024E0F22EFE0C21E0412F6F2D0E947407C4
:1014D00041E04D0F07E021E06F2D8C2F0E94FA07AD
:1014E00027E0412F6F2D8C2F0E94A20706E020E0FD
:1014F000412F6E2D8C2F0E94FA0726E0412F6E2D72
:101500008C2FDF91CF911F910F91FF90EF90DF9083
:10151000BF90AF900C947407FF24FA94F20E14E07D
:101520001E0D21E04F2D612F0E947407DF5F07E041
:1015300021E04D2F612F8C2F0E94FA0706E020E05A
:101540004D2F6E2D8C2F0E94FA0726E04F2D6E2D09
:101550008C2F0E94A2076EC011E0120F94E0F92EAA
:10156000FE0C07E021E0412F6F2D0E94FA07D150B9
:1015700020E04D2F6E2D8C2F0E94A20721E04D2FD1
:101580006F2D8C2F0E94CE0720E0412F69C01FEFE6
:10159000120F84E0F82EFE0C21E0412F6F2D8C2FCE
:1015A0000E94A20707E021E0412F6F2D8C2F0E949F
:1015B000FA0727E0412F6F2D8C2F0E94740741E01E
:1015C0004D0F06E020E06E2D8C2F0E94FA0726E0DA
:1015D000412F6E2D8C2FDF91CF911F910F91FF9096
:1015E000EF90DF90BF90AF900C94A207FF24FA9485
:1015F000F20E14E01E0D21E04F2D612F0E94A20774
:1016000007E021E04F2D612F8C2F0E94FA0720E088
:101610004F2D6E2D8C2F0E94FA0726E04F2D6E2D38
:101620008C2F0E94740741E04D0F20E06E2D8C2F0F
:101630000E94CE0727E04F2D612FCCCF14E0140F6E
:101640004FEF420F21E0612F0E947407DF5F07E038
:1016500021E04D2F612F8C2F0E94FA0720E04D2FA3
:101660006E2D8C2F0E94FA0782C0FF24FA94F20E8E
:1016700014E01E0D21E04F2D612F0E947407DF5FE3
:1016800007E021E04D2F612F8C2F0E94FA0720E008
:101690004D2F6E2D8C2F0E94FA0726E04F2D6E2DB8
:1016A0008C2F0E94A20720E04F2D6E2D8C2F0E94C0
:1016B000CE0721E04F2D612FBACFFF24FA94F20E0E
:1016C00020E04F2D6E2D0E94A20714E01E0D21E098
:1016D0004F2D612F8C2F0E94CE0721E04F2D612FBF
:1016E0008C2F0E947407DF5F07E021E04D2F612FF0
:1016F0008C2F0E94FA0720E04D2F6E2D8C2F0E9418
:10170000FA0726E04F2D65CFFF24FA94F20E14E07D
:101710001E0D21E04F2D612F0E947407DF5F07E04F
:1017200021E04D2F612F8C2F0E94FA0720E04D2FD2
:101730006E2D8C2F0E94FA0726E04F2D6E2D8C2FD8
:101740000E94A20720E04F2D6E2D8C2F0E94CE0705
:1017500021E04F2D612F8C2FDF91CF911F910F91A1
:10176000FF90EF90DF90BF90AF900C94CE07DF9189
:10177000CF911F910F91FF90EF90DF90BF90AF90AE
:10178000089597FD18C02091F7053091F80582174C
:1017900093078CF46830710570F4FC0123E0EE0FC0
:1017A000FF1F2A95E1F7EF55FA4FE60FF71F408B21
:1017B0006F5F0C94DC0B0895AF92BF92CF92DF92D3
:1017C000EF92FF920F931F93CF93DF9300D0CDB78B
:1017D000DEB769834A83880F991F0091F70510913E
:1017E000F805000F111FE1EAF5E09F01215A35408D
:1017F0002017310714F41192F8CF2981FC01EF551D
:10180000FA4F21838A81808360E08091F5050E94F0
:101810008A141016110634F501501109F801EF551C
:10182000FA4FC080B090F305A090F10587E0E82E54
:10183000F12CD12CB6010E2C02C0759567950A9437
:10184000E2F761708A2D0E948A1461E08B2D0E945C
:101850008A1460E08B2D0E948A1481E0E81AF10856
:1018600048F7D7CF61E08091F5050F900F90DF9199
:10187000CF911F910F91FF90EF90DF90CF90BF908D
:10188000AF900C948A14CF93DF9397FD35C0E0910D
:10189000F705F091F8058E179F0774F5683071050C
:1018A00058F54830510540F5DC0133E0AA0FBB1F65
:1018B0003A95E1F7E0E8F0E0EF0102C0D595C79571
:1018C0004A95E2F7AE01FB01EA0FFB1FEF55FA4F15
:1018D000222319F02089422B03C0409520894223FE
:1018E000408BAF55BA4FA60FB71F6F5F50964C9104
:1018F000DF91CF910C94DC0BDF91CF910895EF92A3
:10190000FF921F93CF93DF9397FD1DC02091F705A2
:101910003091F80582179307B4F4EC0123E0880FA7
:10192000991F2A95E1F79C012F543A4F790111E054
:10193000F70111927F0140E0612FCE010E94DC0B84
:101940001F5F1930A9F7DF91CF911F91FF90EF90A2
:1019500008952F923F924F925F926F927F928F9253
:101960009F92AF92BF92CF92DF92EF92FF920F932E
:101970001F93CF93DF93CDB7DEB7C156D1090FB612
:10198000F894DEBF0FBECDBF99AF88AF8B015BAFC0
:101990004AAF80914F0690915006019721F487E459
:1019A00096E00E94C8057E0121E2E20EF11C28E0CB
:1019B000A70167EF87E496E00E948802D701FE0145
:1019C00031964D9150E060E070E041935193619306
:1019D0007193EE15FF05A9F7811116C080E090E024
:1019E000A0ECBFE7EAADFBAD80839183A283B38314
:1019F000F80180839183A283B383E8ADF9AD80833E
:101A00009183A283B383F8C389809A80AB80BC8022
:101A100060968CAE9DAEAEAEBFAE60978D809E8060
:101A2000AF80B88464968CAE9DAEAEAEBFAE649708
:101A300089849A84AB84BC8468968CAE9DAEAEAE2D
:101A4000BFAE68978D859E85AF85B889AC01BD0115
:101A5000ACE0440F551F661F771FAA95D1F78989FF
:101A60009A89AB89BC8924E0880F991FAA1FBB1FE4
:101A70002A95D1F7842B952BA62BB72B4D895E8900
:101A80006F89788D34E075956795579547953A95A8
:101A9000D1F7482B592B6A2B7B2B898D9A8DAB8DD7
:101AA000BC8DBA2FA92F982F8827CD8CDE8CEF8C78
:101AB000F8A04C015D018C289D28AE28BF286C96AB
:101AC0008CAE9DAEAEAEBFAE6C9780915706909136
:101AD0005806A0E0B0E06A017B01F4E0F594E794D9
:101AE000D794C794FA95D1F7C81AD90AEA0AFB0A1B
:101AF00023E075956795579547952A95D1F7880FF7
:101B0000991FAA1FBB1F9A01AB01281B390B4A0B57
:101B10005B0BA0915906B0915A060E94B3344B0159
:101B20005C014BE0B594A794979487944A95D1F7BC
:101B3000A7019601C701B6010E943D369B01AC0189
:101B40006CE055954795379527956A95D1F7A09103
:101B50005B06B0915C060E94B334DC01CB017EE0F1
:101B6000B595A795979587957A95D1F7A501940195
:101B7000280F391F4A1F5B1F29AB3AAB4BAB5CAB3D
:101B8000A5E0B0E00E94A834DC01CB0180589F4F53
:101B9000AF4FBF4F692F7A2F8B2F992787FD9A95CB
:101BA0000E94563320E030E048EC52E40E94903529
:101BB000D8016D937D938D939C93139780906306CA
:101BC000A0968FAEA097909064069EAE809065061A
:101BD0006F968FAE6F97909066069DAE8090670669
:101BE0006E968FAE6E97909068069DAA809069065B
:101BF000A1968FAEA19790906A069FAE80906B06DB
:101C0000A2968FAEA29790906C0626969FAE2697CE
:101C100080906D066D968FAE6D9790906E069CAE1F
:101C2000C9A8DAA8EBA8FCA8FF0CCC08DC2C76012C
:101C300029A93AA94BA95CA96C2D7C2D8C2D9C2D32
:101C4000345F41405109610971098109910929A74E
:101C50003AA74BA75CA76DA77EA78FA798AB5901A2
:101C60006A017B018C010E9473362EAB3FAB279635
:101C70004FAF279728965FAF289729966FAF299780
:101C80002A967FAF2A972B968FAF2B972C969FAFD4
:101C90002C973091600620915F06932F990F990B36
:101CA000492F592F692F792F892F0E9473360CE005
:101CB0000E946C3719012A013B014C0130916206E8
:101CC00020916106932F990F990BAEA8BFA8279674
:101CD000CFAC27972896DFAC28972996EFAC2997A9
:101CE0002A96FFAC2A972B960FAD2B972C961FADFB
:101CF0002C97492F592F692F792F892F0E947336DE
:101D000008E00E94853751016201730184010E943D
:101D1000A33770588F4F9F4F20905D0630905E061E
:101D20005101C12CD12CE12CF12C00E010E00E94DB
:101D3000733601E20E94853721962FAF21972296B4
:101D40003FAF229723964FAF239724965FAF2497F8
:101D500025966FAF2597272E382E492EA0E00E949A
:101D6000B53709F452C16E962FAD6E979DA9990FA4
:101D7000990BAEA8BFA82796CFAC27972896DFACC3
:101D800028972996EFAC29972A96FFAC2A972B968D
:101D90000FAD2B972C961FAD2C973DA9492F592F8E
:101DA000692F792F892F0E9473362DAB3EAB4FAB35
:101DB000552E3B014C016F962FAD6F979DAD990F3E
:101DC000990BA9A4BAA4CBA4DCA4EDA4FEA40FA5EE
:101DD00018A93DAD492F592F692F792F892F0E94BE
:101DE000733601E10E946C37ADA8BEA8CFA8D52CF0
:101DF000730184010E94A33759016A017B01582EA7
:101E0000192F64964CAD5DAD6EAD7FAD649784E0E7
:101E1000440F551F661F771F8A95D1F768968CADC2
:101E20009DADAEADBFAD689724E0B595A7959795EC
:101E300087952A95D1F7482B592B6A2B7B2B6096D7
:101E40008CAD9DADAEADBFAD60973CE0880F991FE6
:101E5000AA1FBB1F3A95D1F7482B592B6A2B7B2B16
:101E600080E090E0A0E1B0E0841B950BA60BB70BDF
:101E70003C014D01990C6608762C43019C01AD0193
:101E8000662D762D862D962D0FE10E946C37390137
:101E90004A01B62FA72FF82FE92FA0962FADA097B4
:101EA0009EAD990F990B3EAD492F592F692F792F70
:101EB000892F03E20E946C37052D0E94A337590138
:101EC0006A017B018C019301A4016B2F7A2F8F2F64
:101ED0009E2F0E94AC37E5E3AE2EFCE0BF2EC12C56
:101EE000D12CE12CF12C00E010E00E9473362196F9
:101EF000AFAC21972296BFAC22972396CFAC239705
:101F00002496DFAC24972596EFAC2597F22C032D71
:101F1000142D0E94CE3629A73AA74BA75CA76DA720
:101F20007EA78FA798AB0DE00E948537322E292E11
:101F30006D962FAD6D979CAD990F990BA32CB32E79
:101F4000C42ED52EE62EF72E082F122D3CAD492F8C
:101F5000592F692F792F892F0E9473360E9473366B
:101F600009E10E948537A9A4BAA4CBA4DCA4EDA4FE
:101F7000FEA40FA518A90E94A33719012A013B014D
:101F80004C01A2962FADA29726969FAD2697990F4A
:101F9000990B26963FAD2697492F592F692F792FF8
:101FA000892F0E94733603E10E94853759016A0127
:101FB0007B018C019101A201B301C4010E94A337EE
:101FC00008E00E94853759016A017B01E82F192F2B
:101FD000A1962FADA1979FAD990F990B3FAD492FBA
:101FE000592F692F792F892F04E00E946C370E2F0B
:101FF0000E94A337B901CA010E94543320E030E0A7
:1020000040E85BE30E94B53304C060E070E080EC20
:102010009FE7A8ADB9AD6D937D938D939C93139776
:102020002091740689A89AA8ABA8BCA8BCE29B1A08
:10203000B1E0AB0AB1086C96CCACDDACEEACFFAC59
:102040006C973EE0CC0CDD1CEE1CFF1C3A95D1F7E2
:1020500080917306E0E18E9FC0011124322F3F7002
:10206000832B092E000CAA0BBB0B44E1880F991F90
:10207000AA1FBB1F4A95D1F7C81AD90AEA0AFB0A58
:10208000A0917506F0E1AF9FD001112422952F7029
:10209000A22BA50194010E94B334C61AD70AE80AFC
:1020A000F90A20E4D20EE11CF11C5FE0F594E794FC
:1020B000D794C7945A95D1F7A0917206B0E0A501C4
:1020C00094010E94A8342B013C016BE07594679445
:1020D000579447946A95D1F730E8530E611C711CF0
:1020E000A09176060A2E000CBB0BA50194010E945C
:1020F000B334EAE09595879577956795EA95D1F79A
:10210000A30192010E943D36DC01CB01FAE0B595B6
:10211000A79597958795FA95D1F79C01AD01405EFB
:102120005F4FA0917006B09171060E94B334DC013C
:10213000CB01905EAF4FBF4FBC01CD01AEE0959596
:10214000879577956795AA95D1F7A70196010E9483
:102150003D366B017C01BFE0959587957795679536
:10216000BA95D1F79B01AC010E943D369B01AC01B1
:1021700017E055954795379527951A95D1F7A09172
:102180006F06B0E00E94A834DC01CB0104E0B595F5
:10219000A795979587950A95D1F746015701881A13
:1021A000990AAA0ABB0AD501C401B7FE03C080E0A0
:1021B00090E0DC0181309105A10529E1B20724F00E
:1021C00080E090E0A0E0B9E1BC01CD012CE0959564
:1021D0008795779567952A95D1F70E94543320E02B
:1021E00030E040E85AE30E94B533AAADBBAD6D9331
:1021F0007D938D939C931397CF59DF4F0FB6F8942F
:10220000DEBF0FBECDBFDF91CF911F910F91FF9029
:10221000EF90DF90CF90BF90AF909F908F907F9086
:102220006F905F904F903F902F90089597FD0FC053
:102230002091F7053091F8058217930744F466233F
:1022400011F040E001C041E06CE00C94DC0B08951B
:10225000AF92BF92CF92DF92EF92FF920F931F93B4
:10226000CF93DF93C82FD62F042FB22EA090130642
:102270000E94A015C0901406D0901506E090160696
:10228000F0901706A70196010E94F234F694E794A5
:10229000D794C7946C157D058E059F0508F445C03D
:1022A00011E0AB1010E0D23009F442C028F4DD2375
:1022B00051F0D13011F115C1D33009F467C0D430D9
:1022C00009F4B1C00EC1E0910406F0910506E00FDB
:1022D000F11DAB1429F0C73008F0C6E0C05D01C0A5
:1022E000C0E2C083FEC0D33008F04CC0DD2309F447
:1022F000EEC0D13009F0F5C010E0C43608F0C3E6F6
:10230000202F30E0E0910406F0910506E20FF31F64
:10231000111106C08C2F6AE00E944D36805D01C00D
:1023200080E280832F5F3F4FC1C0D230E1F610E0E2
:10233000C73008F0C6E0202F30E0E0910406F091AD
:102340000506E20FF31F111108C0A0910806B09115
:102350000906AC0FB11D8C9101C080E280832F5F14
:102360003F4FE0910406F0910506E20FF31F1111B3
:1023700053C0A0910806B0910906AC0FB11D11968B
:102380008C914BC0D33009F04AC010E0C73308F03D
:10239000C6E3E02FF0E0A0910406B09105069D0190
:1023A0002E0F3F1F111109C080910A0690910B0654
:1023B0008C0F911DDC018C9101C080E2D9018C93BE
:1023C000A0910406B0910506CF0101969D01280F4A
:1023D000391F11110AC080910A0690910B068C0FCB
:1023E000911DDC0111968C9101C080E2D9018C9382
:1023F0009F012E5F3F4FE0910406F0910506E20F2A
:10240000F31F111109C0A0910A06B0910B06AC0F81
:10241000B11D12968C9101C080E2808362C0D430DD
:1024200009F05FC010E0C43608F0C3E6202F30E0AA
:10243000E0910406F0910506E20FF31F11110AC0A6
:102440008091180690E001976AE070E00E9459368A
:10245000605D01C060E26083E0910406F0910506D2
:10246000C9010196E80FF91F11110AC080911806E1
:1024700090E001976AE070E00E945936805D01C0EB
:1024800080E28083E0910406F0910506C90102967E
:10249000E80FF91F111106C08C2F6AE00E944D361B
:1024A000805D01C080E280832D5F3F4FE091040694
:1024B000F0910506E20FF31F111106C08C2F6AE0A0
:1024C0000E944D36905D01C090E290830AC0C730F3
:1024D00008F0C6E0E0910406F0910506E00FF11D5A
:1024E000FDCEDF91CF911F910F91FF90EF90DF9084
:1024F000CF90BF90AF900895CF93DF93C9EFD5E011
:1025000089859A85DC01ED91FC910280F381E02DB3
:1025100060E00995982F9695969596959E71292F2E
:10252000220F220F920F8F70890F8B8B88838985E2
:102530009A85DC01ED91FC910280F381E02D61E050
:102540000995982F9695969596959E71292F220F0D
:10255000220F920F8F70890F8C8B898389859A85C2
:10256000DC01ED91FC910280F381E02D62E00995A0
:10257000982F9695969596959E71292F220F220F4A
:10258000920F8F70890F8D8B8B8389859A85DC01E3
:10259000ED91FC910280F381E02D63E00995982F85
:1025A0009695969596959E71292F220F220F920F40
:1025B0008F70890F8E8B8D8389859A85DC01ED91D3
:1025C000FC910280F381E02D64E00995982F9695A7
:1025D000969596959E71292F220F220F920F8F703C
:1025E000890F8F8B8F8389859A85DC01ED91FC9112
:1025F0000280F381E02D65E00995982F96959695D8
:1026000096959E71292F220F220F920F8F70890F9E
:10261000888F888789859A85DC01ED91FC910280FD
:10262000F381E02D66E00995982F969596959695FD
:102630009E71292F220F220F920F8F708150890FC8
:10264000898F8E830E94A0156AA37BA38CA39DA370
:10265000DF91CF9108958F929F92AF92BF92CF92C8
:10266000DF92EF92FF92CF93DF93A09183068823AE
:1026700011F03A2F01C030E08091840690E0880F7D
:10268000991F80509F4FC0908906D0908A06E09095
:102690008B06F0908C0640E050E0BA01FC01C59139
:1026A000D49128812A23231314C04A015B012FEF00
:1026B000821A920AA20AB20A4C155D056E057F05C0
:1026C00018F4B501A401EACF30E020E080E090E00A
:1026D00003C0342F252FCB01632F722FDF91CF91B1
:1026E000FF90EF90DF90CF90BF90AF909F908F9032
:1026F00008953FB7F8948091920690919306A09127
:102700009406B091950626B5A89B05C02F3F19F0F9
:102710000196A11DB11D3FBFBA2FA92F982F882761
:10272000820F911DA11DB11DBC01CD0142E0660FBC
:10273000771F881F991F4A95D1F70895462F97FD57
:102740000AC02091F7053091F805821793071CF411
:102750006AE00C94DC0B08950F931F93CF93DF93E3
:102760008B01EA018D339105A8F4A0910206B09186
:1027700003066AE00E944D36492F20E1829F400DFA
:102780001124ED91FC9111970480F581E02D60E01A
:10279000CD0109950D331105B0F4A0910206B09159
:1027A0000306802F6AE00E944D36492F20E1829F68
:1027B000400D1124ED91FC9111970480F581E02DDD
:1027C00061E0CD010995C831D105D0F4A091020690
:1027D000B09103068C2F6AE00E944D36492F20E10C
:1027E000829F400D1124ED91FC9111970480F58199
:1027F000E02D62E0CD01DF91CF911F910F910994FF
:10280000DF91CF911F910F910895282F3091E0060D
:10281000313208F04AC08091BC068111FCCF909102
:10282000DF0642E04093BC062093BB062FEF2093C7
:10283000BA061092B9063093B806EFEBF6E0A8E9B5
:10284000B6E020E0321721F041914D932F5FFACF8F
:102850001092970620919706990F922B90939706C6
:1028600090919606913061F4109296069091970699
:102870009093BB009091BC0093FDF8CF95EC01C004
:1028800095EE9093BC009091BC069230E1F390914C
:10289000BA069F3F79F08091BA06803241F080916C
:1028A000BA06803331F084E005C081E003C082E0E5
:1028B00001C083E01092BE061092E0061092BD06A1
:1028C0000895833081F028F4813099F08230A1F0AE
:1028D00008958730A9F08830B9F08430D1F4809120
:1028E00080008F7D03C0809180008F77809380006F
:1028F000089584B58F7702C084B58F7D84BD089517
:102900008091B0008F7703C08091B0008F7D80935D
:10291000B00008951F93CF93DF93282F30E0F90183
:10292000E65FFE4F8491F901E852FF4FD491F9011F
:10293000EC53FF4FC491CC23C1F0162F81110E949C
:102940006114EC2FF0E0EE0FFF1FEA50FF4FA5914E
:10295000B4919FB7F894111104C08C91D095D823ED
:1029600002C0EC91DE2BDC939FBFDF91CF911F91D2
:102970000895CF93DF9390E0FC01E852FF4F24913C
:10298000FC01EC53FF4F8491882361F190E0880FA4
:10299000991FFC01E451FF4FC591D491FC01EA500D
:1029A000FF4FA591B491611109C09FB7F894888138
:1029B000209582238883EC912E230BC0623061F432
:1029C0009FB7F8948881322F309583238883EC91C8
:1029D0002E2B2C939FBF06C08FB7F894E8812E2B27
:1029E00028838FBFDF91CF910895CF93DF93EC01C0
:1029F00061E085E00E94B914209711F460E004C002
:102A0000CF3FD10531F461E085E0DF91CF910C94A7
:102A10008A14EFE0F1E0E491E330F9F048F4E130BA
:102A2000B9F0E230A1F584B5806284BDC8BD34C080
:102A3000E730E9F0E83019F1E43049F580918000A1
:102A4000806280938000D0938B00C0938A0024C062
:102A500084B5806884BDC7BD1FC080918000806838
:102A600080938000D0938900C093880015C0809126
:102A7000B00080688093B000C093B3000DC0809117
:102A8000B00080628093B000C093B40005C0C0382D
:102A9000D1050CF0B8CFB2CFDF91CF9108958E3031
:102AA00008F08E508770806480937C0080917A005B
:102AB000806480937A0080917A0086FDFCCF8091BB
:102AC00078002091790090E0922B08958F929F9248
:102AD000AF92BF92CF92DF92EF92FF926B017C0197
:102AE0000E9479134B015C01C114D104E104F1048B
:102AF000F1F00E947913DC01CB0188199909AA0928
:102B0000BB09883E9340A105B10570F321E0C21ACC
:102B1000D108E108F10888EE880E83E0981EA11C18
:102B2000B11CC114D104E104F10419F7DDCFFF9009
:102B3000EF90DF90CF90BF90AF909F908F900895CF
:102B40002FB7F89460918E0670918F068091900651
:102B5000909191062FBF0895CF92DF92EF92FF924E
:102B60000F931F93CF93DF938C01C2E0D0E021E05D
:102B7000AE0161E070E087E090E00E94430C21E04C
:102B8000AE0162E070E087E090E00E94430C21E03B
:102B9000AE0163E070E087E090E00E94430C21E02A
:102BA000AE0164E070E087E090E00E94430C219663
:102BB000C630D105E1F60E94A0152091F0066B0108
:102BC0007C01C21AD108E108F108A801110F660BB7
:102BD000770B4C155D056E057F0508F054C0253157
:102BE00018F01092F00604C091E0920F9093F00656
:102BF0008091F0068130D9F078F0823019F183307D
:102C0000C1F520E040E050E066E070E087E090E051
:102C10000E94430C20E025C021E041E050E065E047
:102C200070E087E090E00E94430C21E015C021E0B5
:102C300040E050E066E070E087E090E00E94430CE6
:102C400021E00FC020E041E050E065E070E087E067
:102C500090E00E94430C20E046E050E065E070E028
:102C600004C047E050E066E070E087E090E00E943A
:102C7000430CDF91CF911F910F91FF90EF90DF9068
:102C8000CF900C94A015DF91CF911F910F91FF90E1
:102C9000EF90DF90CF900895AF92BF92CF92DF92E6
:102CA000EF92FF920F931F93CF93DF93CDB7DEB7D1
:102CB0002C970FB6F894DEBF0FBECDBF7C01D62E89
:102CC0008091670390916803A0916903B0916A03B2
:102CD00089879A87AB87BC875E0189E0A80EB11C03
:102CE00000E010E0F50141915F01B80187E090E05C
:102CF0000E94C10B0F5F1F4F0430110599F788E048
:102D0000EBE6F3E0DE01119601900D928A95E1F772
:102D10000E94A0150091EC061091ED062091EE06A0
:102D20003091EF06AB01BC01401B510B620B730BE2
:102D3000C701FF0CAA0BBB0B84179507A607B707A3
:102D400008F062C08091EB068D1518F01092EB062A
:102D500003C08F5F8093EB068091E9068093EA06BB
:102D60008091E8068093E9068091E7068093E80663
:102D700097E0C92ED12CE12CF12C0E94F832A7014A
:102D800096010E9489348091E6068617B1F3262FBA
:102D900030E090E0AC01415051092417350769F348
:102DA00001962817390749F36093E6068091EB06F0
:102DB000811110C0E1E0F0E0EC0FFD1FE20FF31F06
:102DC00080818093E70687EEE82E86E0F82E04E007
:102DD00010E003C01092E706F6CFF70141917F01A2
:102DE000B80187E090E00E94C10B0F5F1F4F0830D1
:102DF000110599F70E94A0156093EC067093ED06FB
:102E00008093EE069093EF062C960FB6F894DEBFF3
:102E10000FBECDBFDF91CF911F910F91FF90EF902B
:102E2000DF90CF90BF90AF900895EF92FF920F93F5
:102E30001F93CF93DF93CDB7DEB728970FB6F894E3
:102E4000DEBF0FBECDBF7C0188E0E3E7F3E0DE012B
:102E5000119601900D928A95E1F70E94A0150091BC
:102E6000E2061091E3062091E4063091E506DC01CC
:102E7000CB01801B910BA20BB30B8D389105A105E3
:102E8000B105D0F18091E106883018F01092E1068A
:102E900003C08F5F8093E1060E94A0156093E20655
:102EA0007093E3068093E4069093E5068E010F5F2E
:102EB0001F4F88E0E816F104FCF4F80181918F01BE
:102EC0009091E106292F30E0482F01C0440F9A95D8
:102ED000EAF73195219531092770332701C086958E
:102EE0002A95EAF7482BB70187E090E00E94C10BD2
:102EF000FFEFEF1AFF0ADDCF28960FB6F894DEBF7A
:102F00000FBECDBFDF91CF911F910F91FF90EF903A
:102F10000895CF92DF92EF92FF920F931F93CF937A
:102F2000DF93CDB7DEB7C054D1400FB6F894DEBF03
:102F30000FBECDBF0E94A015009185061091860698
:102F400020918706309188066B017C01C01AD10A56
:102F5000E20AF30A40EDC41647E0D406E104F104A6
:102F600018F480918D06BCC0609385067093860628
:102F700080938706909388061092800610927F06B1
:102F800010927E0610927D0610927C0661E0809180
:102F900081060E948A146AEF70E080E090E00E944F
:102FA000661561E0809181060E94B91460E080910D
:102FB00081060E948A1464E170E080E090E00E9443
:102FC0006615F89461E0809181060E948A148BE96D
:102FD00090E00197F1F762E0809181060E94B914B8
:102FE00083E290E00197F1F780E00E942B13672BBA
:102FF000682B692B21F410928D0678943EC081E0F5
:103000000E942B13672B682B692BA9F38E010F5F8E
:103010001F4F6E018FEBC81A8EEFD80A780180E03F
:103020000E942B13F701608371838283938381E075
:103030000E942B13F7016483758386839783F8E0DE
:10304000EF0EF11CEC14FD0451F7789420E030E011
:10305000F801C080D180E280F3804481558166818F
:103060007781C114D104E104F10429F0411551051F
:103070006105710521F410928D0680E031C0F901DF
:1030800083E0F595E7958A95E1F7E458F94F80815B
:10309000880FC416D506E606F70608F4816080831B
:1030A0002F5F3F4F085F1F4F2832310589F620916F
:1030B000800630E040917C0680917D0690E0840F90
:1030C000911D40917E06840F911D40917F06840FD3
:1030D000911D99272817390771F681E080938D0695
:1030E000C05CDE4F0FB6F894DEBF0FBECDBFDF91E0
:1030F000CF911F910F91FF90EF90DF90CF900895A7
:10310000CF92DF92EF92FF920E948917882389F174
:10311000809182068B3029F160F18551823048F52B
:1031200060917C0670E080E090E00E94543320E0E3
:1031300030E040E853E40E94B5336B017C016091BC
:103140007D0670E080E090E00E945633A701960172
:103150000E9424352DEC3CEC4CEC5DE30E94B53331
:103160000CC060917C0670E080E090E00E945433D7
:1031700004C060E070E080EC9FE7FF90EF90DF908C
:10318000CF900895DC011C96ED91FC911D97208154
:1031900016968C91922F982381E009F480E008958F
:1031A000FC01A085B18586819C91611109C0892BA4
:1031B0008C93A089B1899C9186818095892308C0D0
:1031C000809589238C93A089B1899C918681892BD4
:1031D0008C930895FC01A285B38587819C91611130
:1031E0000CC0892B8C93A289B3899C91878180958F
:1031F00089238C9320E63AEE14C0809589238C9322
:10320000A289B3899C918781892B8C93A685B785E8
:10321000978120E63AEE8C91892319F42115310526
:1032200029F481E0232B29F480E00895215031090D
:10323000F2CF0895CF92DF92EF92FF920F931F93F8
:10324000CF93DF93EC01E62EE881F98104A0F5A18C
:10325000E02D61E0099510E008E0FF24F394CC2410
:10326000C394D12C0150E881F98102A0F3A1E02D93
:1032700061E0CE010995811101C0F12CE881F9814D
:1032800006A0F7A1E02DCE010995882339F0C601EB
:10329000002E01C0880F0A94EAF7182BE881F98103
:1032A00002A0F3A1E02D60E0CE0109950111DACF73
:1032B00061E06E25E881F98104A0F5A1E02DCE0141
:1032C0000995E881F98102A0F3A1E02D61E0CE012A
:1032D0000995811101C0F12CE881F98102A0F3A1C7
:1032E000E02D60E0CE010995FF2011F0812F01C093
:1032F00080E0DF91CF911F910F91FF90EF90DF90D1
:10330000CF900895CF92DF92EF92FF920F931F9389
:10331000CF93DF93EC0108E011E0C62ED12CE12C15
:10332000F12C0150D701C601002E04C0B695A79517
:10333000979587950A94D2F7682F6170E881F98193
:1033400004A0F5A1E02DCE010995E881F98102A044
:10335000F3A1E02D61E0CE010995811101C010E0DB
:10336000E881F98102A0F3A1E02D60E0CE0109958A
:103370000111D7CFE881F98104A0F5A1E02D61E02A
:10338000CE010995E881F98102A0F3A1E02D61E069
:10339000CE010995811101C010E0E881F98106A0F4
:1033A000F7A1E02DCE010995811110E0E881F981A6
:1033B00002A0F3A1E02D60E0CE010995812FDF91FD
:1033C000CF911F910F91FF90EF90DF90CF900895D4
:1033D000BF92CF92DF92EF92FF920F931F93CF9302
:1033E000DF93EC01B42E07E011E0C62ED12CE12CC6
:1033F000F12C0150D701C601002E04C0B695A79547
:10340000979587950A94D2F7682F6170E881F981C2
:1034100004A0F5A1E02DCE010995E881F98102A073
:10342000F3A1E02D61E0CE010995811101C010E00A
:10343000E881F98102A0F3A1E02D60E0CE010995B9
:103440000111D7CFE881F98104A0F5A1E02D6B2D02
:10345000CE010995E881F98102A0F3A1E02D61E098
:10346000CE010995811101C010E0E881F98102A027
:10347000F3A1E02D60E0CE010995E881F98104A077
:10348000F5A1E02D61E0CE010995E881F98102A066
:10349000F3A1E02D61E0CE010995811101C010E09A
:1034A000E881F98106A0F7A1E02DCE0109958111EF
:1034B00010E0E881F98102A0F3A1E02D60E0CE01E7
:1034C0000995812FDF91CF911F910F91FF90EF9080
:1034D000DF90CF90BF900895CF93DF93EC01E88108
:1034E000F98104A0F5A1E02D60E00995E881F9815A
:1034F00002A0F3A1E02D61E0CE010995E881F981F8
:1035000004A0F5A1E02D61E0CE01DF91CF910994F7
:10351000DC01ED91FC910688F789E02D09941F9359
:10352000CF93DF93EC01E881F98102A0F3A1E02DB4
:1035300061E00995182FE881F98104A0F5A1E02D3B
:1035400060E0CE010995E881F98102A0F3A1E02DA8
:1035500060E0CE010995812FDF91CF911F910895F1
:103560001F93CF93DF93EC01162FE881F981068832
:10357000F789E02D0995882369F0E881F981048CA9
:10358000F58DE02D40E0612FCE010995882321F0D3
:1035900012E003C010E001C011E0E881F981028C63
:1035A000F38DE02DCE01099581E0123009F080E025
:1035B000DF91CF911F91089581E00895DF92EF92FE
:1035C000FF920F931F93CF93DF93EC01F62ED42E2F
:1035D000152F022FE881F9810688F789E02D0995DA
:1035E0008823F9F0E881F981048CF58DE02D40E025
:1035F0006F2DCE0109958823B1F0ED2CF12E12E04C
:10360000002391F0F70161917F01E881F981068C37
:10361000F78DE02DCE010995811101C010E0015018
:10362000EFCF10E001C011E0E881F981028CF38D49
:10363000E02DCE01099581E0123009F080E0DF91A4
:10364000CF911F910F91FF90EF90DF900895DF923F
:10365000EF92FF920F931F93CF93DF93EC01E62E2F
:10366000F42ED22E132FE881F9810688F789E02DF8
:103670000995882349F1E881F981048CF58DE02DC5
:1036800040E06E2DCE010995882301F1E881F98192
:10369000068CF78DE02D6F2DCE0109958823C1F0A2
:1036A000ED2CF12E13E00023A1F0F70161917F01D1
:1036B000E881F981068CF78DE02DCE010995811105
:1036C00001C010E00150EFCF10E003C011E001C0D5
:1036D00012E0E881F981028CF38DE02DCE0109958D
:1036E00081E0133009F080E0DF91CF911F910F91BD
:1036F000FF90EF90DF900895EF92FF920F931F934A
:10370000CF93DF93EC01062F7A01122FE881F98124
:103710000688F789E02D09958823E9F0E881F98189
:10372000048CF58DE02D41E0602FCE0109958823B2
:10373000A1F01123A1F061E0123008F460E0E8810B
:10374000F98100A0F1A1E02DCE010995F701819347
:103750007F011150EECF10E003C011E001C012E074
:10376000E881F981028CF38DE02DCE01099581E08D
:10377000123009F080E0DF91CF911F910F91FF90FF
:10378000EF900895DF92EF92FF920F931F93CF93E4
:10379000DF93EC01162FD42E7901E881F981068898
:1037A000F789E02D09958823D9F1E881F981048C06
:1037B000F58DE02D40E0612FCE010995882391F130
:1037C000E881F981068CF78DE02D6D2DCE010995EC
:1037D000882351F1E881F981008CF18DE02DCE0133
:1037E0000995882319F1E881F981048CF58DE02D84
:1037F00041E0612FCE0109958823D1F00023D1F05B
:1038000061E0023008F460E0E881F98100A0F1A1F4
:10381000E02DCE010995F70181937F010150EECF94
:1038200010E009C011E007C012E005C013E003C0BA
:1038300014E001C015E0E881F981028CF38DE02DE0
:10384000CE01099581E0153009F080E0DF91CF913C
:103850001F910F91FF90EF90DF900895CF93DF932A
:103860001F92CDB7DEB74983DC01ED91FC91008852
:10387000F189E02D21E0AE014F5F5F4F09950F9078
:10388000DF91CF9108950F93CF93DF931F92CDB720
:10389000DEB72983DC01ED91FC910484F585E02DF0
:1038A00001E09E012F5F3F4F09950F90DF91CF916F
:1038B0000F9108950F931F93CF93DF93EC01062F81
:1038C000142FE881F9810280F381E02D09958DA301
:1038D000FE01E00FF11D968D292F20952823122B34
:1038E000282F292B212347896E89CE010296DF914B
:1038F000CF911F910F910C94431CCF93DF931F9294
:10390000CDB7DEB71982DC01ED91FC910684F78515
:10391000E02D21E0AE014F5F5F4F099589810F9047
:10392000DF91CF9108950F93CF93DF931F92CDB77F
:10393000DEB71982DC01ED91FC910284F385E02D64
:1039400001E09E012F5F3F4F099589810F90DF9124
:10395000CF910F910895CF93DF93EC016A8170E0CE
:10396000FB01EC53FF4F24912C834B8150E0FA0173
:10397000EC53FF4F84918D83FB01E852FF4F64911C
:103980006E83FA01E852FF4F44914F8330E0220FDB
:10399000331FF901E451FF4F4591549159874887EE
:1039A00090E0880F991FFC01E451FF4F459154911D
:1039B0005B874A87F901E050FF4F459154915D873D
:1039C0004C87FC01E050FF4F459154915F874E8733
:1039D000F901EA50FF4F25913491398B288BFC0176
:1039E000EA50FF4F859194919B8B8A8BE881F981F6
:1039F00002A0F3A1E02D61E0CE010995E881F981F3
:103A000004A0F5A1E02D61E0CE01DF91CF910994F2
:103A10000F931F93CF93DF93EC018C010E5F1F4F29
:103A200044E650E060E070E0C8010E94AB1C40E05A
:103A30006E89C8010E94931C8DA387FF07C0282FA1
:103A40002F7740E06E89C8010E94431C42E06E89D6
:103A5000C8010E94931C8DA386FF07C0282F2F7BCF
:103A600042E06E89C8010E94431C47E06E89C8018C
:103A70000E94931C8DA3982F937011F484FD0CC0A9
:103A80008C7E282F206147E06E89C801DF91CF919D
:103A90001F910F910C94431CDF91CF911F910F91B7
:103AA00008950F931F93CF93DF93EC01162F61E0DE
:103AB00070E080E090E00E946615CE01810F911DBC
:103AC0008C01FC0147896E89CE0102960E94931CED
:103AD000F801968D8923DF91CF911F910F91089561
:103AE000CF92DF92EF92FF920F931F93CF93DF93CA
:103AF0008C017B01EA01CB0104966C0120E0A80156
:103B000067E070E0C830D10594F4C7010E94430C0F
:103B100021E0A801BE01C6010E94430C209709F1D3
:103B2000BE016150710920E0A801C60110C00E94C9
:103B3000430CBE016750710921E0A801C7010E9432
:103B4000430CBE016850710920E0A801C701DF9154
:103B5000CF911F910F91FF90EF90DF90CF900C9439
:103B6000430CDF91CF911F910F91FF90EF90DF9069
:103B7000CF900895CF92DF92EF92FF920F931F9311
:103B8000CF93DF93CDB7DEB728970FB6F894DEBF9B
:103B90000FBECDBF6C0188E0EBE7F3E0DE011196CC
:103BA00001900D928A95E1F78E010F5F1F4FE12C76
:103BB000F12CF80141918F01B701C6010E94C10BA0
:103BC000FFEFEF1AFF0A88E0E816F10491F7289654
:103BD0000FB6F894DEBF0FBECDBFDF91CF911F911E
:103BE0000F91FF90EF90DF90CF9008951F920F926A
:103BF0000FB60F9211242F933F938F939F93AF9300
:103C0000BF9380918E0690918F06A0919006B091FF
:103C100091063091F10623E0230F2D3720F4019611
:103C2000A11DB11D05C026E8230F0296A11DB11DDF
:103C30002093F10680938E0690938F06A0939006B2
:103C4000B09391068091920690919306A09194066C
:103C5000B09195060196A11DB11D80939206909397
:103C60009306A0939406B0939506BF91AF919F9150
:103C70008F913F912F910F900FBE0F901F9018952D
:103C8000CF93DF93CDB7DEB7CD56D1090FB6F894F9
:103C9000DEBF0FBECDBF789484B5826084BD84B58D
:103CA000816084BD85B5826085BD85B5816085BD37
:103CB00080916E00816080936E00109281008091EF
:103CC0008100826080938100809181008160809377
:103CD0008100809180008160809380008091B1009C
:103CE00084608093B1008091B00081608093B000C7
:103CF00080917A00846080937A0080917A0082605B
:103D000080937A0080917A00816080937A0080911C
:103D10007A00806880937A001092C10080E090E081
:103D20000E9473348093900481E090E00E94733489
:103D300091E0811101C090E09093930482E090E0C3
:103D40000E9473348093070162E0809181060E9493
:103D5000B91480E398EFAFEFBFEF8093850690939F
:103D60008606A0938706B0938806E0910805F09137
:103D7000090582E08083E0910405F0910505108239
:103D8000E0910605F09107058FEC808310921005F5
:103D9000E0910C05F0910D0586E08083E0910A0525
:103DA000F0910B05808180618083E0910A05F0919C
:103DB0000B05808188608083E0910A05F0910B05F6
:103DC000808180688083E0910A05F0910B058081F5
:103DD0008F7D80831092DD031092DC031092BE066B
:103DE0001092E0061092BC0681E08093BB06109210
:103DF000960661E082E10E948A1461E083E10E94FC
:103E00008A148091B9008E7F8093B9008091B900A7
:103E10008D7F8093B90088E48093B80085E4809317
:103E2000BC0088EF91E09093DB038093DA0389EF85
:103E300091E09093D9038093D80387E496E00E94A1
:103E400002068091020690910306DC01ED91FC913F
:103E50000190F081E02D09950E942E080DE1E02EE1
:103E600004E0F02E00E010E00E9480180E9402366C
:103E7000F701619371937F0108301105B9F060E09B
:103E8000C8010E94161180919304811103C068E05B
:103E900070E003C06091070170E0C8010E949E13AA
:103EA000C8010E947F0C0F5F1F4FDECF41E59E01CE
:103EB0002F5F3F4F1901D901E42F1D92EA95E9F7D1
:103EC0008FEF89838A838B838C838D838E838F830B
:103ED000888791E19A8799E09B8753E05C8797E018
:103EE0009D879FED9E878F87888B898B90E59B8B25
:103EF0009C8B9D8B30E73E8B2FE7288F898F8A8F95
:103F00004C8F27E52D8F24E52E8F27E72F8F59A380
:103F10006FE16AA38BA358EF5DA35CEF5EA35FA381
:103F200058A75EEF59A75AA78BA78CA76EA78FE358
:103F30008FA789E988AB80E389AB8AAB84E48BAB3C
:103F400088E08CAB81E88DAB98AF39AF80E68AAF63
:103F50009BAF4CAF3EAF22962FAF229784E22396C1
:103F60008FAF239797E224969FAF249725968FAF24
:103F7000259726968FAF269728962FAF2897610111
:103F8000E12CF12C00E010E0F601E00FF11F408180
:103F9000B801C7010E94C10B0F5F1F4F0830110508
:103FA00099F7FFEFEF1AFF0A29E0C20ED11C38E0A3
:103FB000E316F10439F760EA7FE080E090E00E94C8
:103FC000661500E010E0C8010E947F0C0F5F1F4FD4
:103FD00008301105C1F762E086E00E94B91462E082
:103FE00084E00E94B91461E085E00E94B91460E0A9
:103FF00080E10E94B91461E085E00E94B9148AEF63
:1040000090E00E94F51484E10E944F15BC01990FC5
:10401000880B990B611571058105910511F00E94BE
:10402000463380E090E0A0ECBFE76A968CAF9DAF8E
:10403000AEAFBFAF6A9766968CAF9DAFAEAFBFAF66
:10404000669789839A83AB83BC83AE014E5A5F4FD8
:10405000BE016A5A7F4FC1010E94A90C69817A8111
:104060008B819C810E940936E7E4F4E02FE634E07E
:10407000C12CD12C7601D9016D937D938D939D93A5
:104080009D01C192D192E192F192BFEFCB1ADB0A6E
:10409000EB0AFB0A46E0C416D104E104F10459F727
:1040A00083E396E00E9483038FE196E00E948303FE
:1040B00083E396E00E945604882331F090919404A3
:1040C00081E08927809394048FE196E00E94560452
:1040D000882351F06091930481E0682760939304F2
:1040E00081E090E00E94770683E396E00E948A04D4
:1040F000882309F468C080919304811164C0809181
:10410000FA058B3310F00C94252E8F5F8093920468
:104110006091920470E08091F9054FEF5FEF90E0BD
:104120000E94AC130E947C122091FC05822F6CE04F
:104130000E944D36911101C09CE09093FB0581E0F7
:104140002C3008F480E08093FD052091FA051AE0F8
:10415000822F612F0E944D3606EF582F0503C001B4
:10416000112441E050E060E070E0820F911D0E9458
:10417000D1068091FA05612F0E944D3641E050E052
:1041800061E070E090E00E94D1062091FC05822F52
:10419000612F0E944D36682F0603C00111244FEF96
:1041A0005FEF62E070E0820F911D0E94D106809166
:1041B000FC05612F0E944D364FEF5FEF63E070E02A
:1041C00090E00E94D1068FE196E00E948A04882345
:1041D00009F469C080919304811165C08091FC0548
:1041E000873110F00C94292E8F5F809391044091B9
:1041F000910450E06091FA0570E08091F90590E03B
:104200000E94AC130E947C122091FC05822F6CE06E
:104210000E944D36911101C09CE09093FB0581E016
:104220002C3008F480E08093FD052091FA051AE017
:10423000822F612F0E944D3606EF782F0703C001B1
:10424000112441E050E060E070E0820F911D0E9477
:10425000D1068091FA05612F0E944D3641E050E071
:1042600061E070E090E00E94D1062091FC05822F71
:10427000612F0E944D36382F0303C00111244FEFE8
:104280005FEF62E070E0820F911D0E94D106809185
:10429000FC05612F0E944D364FEF5FEF63E070E049
:1042A00090E00E94D10683E396E00E9470048111A1
:1042B00007C08FE196E00E94700481111EC036C0D5
:1042C0001092940480919004843018F0109290041D
:1042D00003C08F5F809390046091900480E090E031
:1042E0000E94770600E010E0C8010E947F0C0F5F7B
:1042F0001F4F08301105C1F7DCCF10929404809154
:104300009004811119C081E0809390046091900421
:1043100080E090E00E94770600E010E0C8010E9473
:104320007F0C0F5F1F4F08301105C1F78091940477
:10433000882321F00C94092B8150E6CF80919004C2
:10434000823009F4F1C138F4882369F0813009F42E
:104350009BC00C94AD2B833009F402C4843009F463
:1043600096C60C94AD2B1091FA050E942E080E945F
:10437000A015C090E503D090E603E090E703F0902D
:10438000E803DC01CB018C199D09AE09BF0920911E
:10439000FA0585369105A105B10510F00C942D2E76
:1043A00012130C942D2E0E94A015E091DF03F091C2
:1043B000E0030091E1031091E2032091E3033091C7
:1043C000E403AB01BC01401B510B620B730B9F015B
:1043D000220F331F2E0F3F1F215F3F4F8901330FE5
:1043E000220B330B041715072607370708F040C0C8
:1043F000EE30F1053CF4CF0101969093E0038093F9
:10440000DF030AC01092E0031092DF039091DE03F5
:1044100081E089278093DE030E94A0156093E10369
:104420007093E2038093E3039093E4038091DE03AF
:104430000091DF031091E003A80181110CC061E03D
:1044400070E080E090E00E94701DA80162E070E0E2
:1044500087E090E00BC062E070E087E090E00E94AF
:10446000701DA80161E070E080E090E00E942307E9
:104470000E94A0156093E5037093E6038093E70321
:104480009093E8030C94AD2B0E94A0150091F503C6
:104490001091F6032091F7033091F803DC01CB0172
:1044A000801B910BA20BB30B8997A105B10570F18D
:1044B0008091F3039091F4038031910528F01092DC
:1044C000F4031092F30305C001969093F4038093D4
:1044D000F3030091F3031091F40361E0C8010E941B
:1044E000480960E00115110519F48FE090E002C061
:1044F000C80102970E9448090E94A0156093F50325
:104500007093F6038093F7039093F8030E94A0152D
:104510000091EF031091F0032091F1033091F20329
:10452000DC01CB01801B910BA20BB30BC397A10540
:10453000B10570F18091ED039091EE038431910506
:1045400028F01092EE031092ED0305C001969093AF
:10455000EE038093ED030091ED031091EE0361E013
:10456000C8010E94C10960E00115110519F483E139
:1045700090E002C0C80102970E94C1090E94A015E4
:104580006093EF037093F0038093F1039093F20331
:104590000E94A0150091E9031091EA032091EB031A
:1045A0003091EC03DC01CB01801B910BA20BB30B10
:1045B000813A9F40A105B10510F40C94AD2B60E049
:1045C00070E080EC9FE76A966CAF7DAF8EAF9FAFD7
:1045D0006A9766966CAF7DAF8EAF9FAF6697698323
:1045E0007A838B839C83AE014E5A5F4FBE016A5A19
:1045F0007F4FC1010E94A90C20E030E040E450E46C
:104600006A966CAD7DAD8EAD9FAD6A970E942335E5
:104610006A966CAF7DAF8EAF9FAF6A9720E030E0B7
:10462000A9010E94383640E050E063E070E01816BF
:104630001CF48AE090E002C08BE090E00E94D1067A
:1046400020E030E040E251E46A966CAD7DAD8EAD85
:104650009FAD6A970E9490350E940236DC01CB0123
:1046600040E050E062E070E00E94D1066A96CCAC77
:10467000DDACEEACFFAC6A9720E030E040E251E404
:10468000C701B6010E9490350E9402362AE0269F9B
:10469000A001279F500D1124BA01550F880B990BCB
:1046A0000E9456339B01AC01C701B6010E9423351D
:1046B0000E940236DC01CB0140E050E061E070E096
:1046C0000E94D1066A96CCACDDACEEACFFAC6A972A
:1046D000C701B6010E940236072E000C880B990B09
:1046E0000E9456339B01AC01C701B6010E942335DD
:1046F00020E030E048EC52E40E94B5330E940236DC
:10470000DC01CB0140E050E060E070E00E947906FF
:104710000E94A0156093E9037093EA038093EB0372
:104720009093EC030C94AD2B0E94A01500913004E3
:10473000109131042091320430913304DC01CB011B
:10474000801B910BA20BB30B893B9B40A105B105CC
:1047500008F487C00E94801820E030E040E251E475
:104760000E9490350E940236DC01CB0141E050E00E
:1047700063E070E00E94D1060E9480186B017C010A
:104780000E94801820E030E040E251E40E94903521
:104790000E9402362AE0269FA001279F500D112477
:1047A000BA01550F880B990B0E9456339B01AC013F
:1047B000C701B6010E9423350E940236DC01CB01FD
:1047C00041E050E062E070E00E94D10640E050E03D
:1047D00061E070E08CE090E00E94D10680912F04AF
:1047E000893010F110922F04EDE1F4E080E090E0C8
:1047F00021913191820F931FA4E0EF32FA07C1F7A4
:1048000020911B0430911C04FC01E21BF30BF0937C
:104810000101E093000190931C0480931B048DE23E
:1048200094E0EDE1F4E004C08F5F80932F04F7CFB4
:1048300022813381219331938E179F07C9F70E94FC
:1048400080180E94023670932E0460932D040E94FB
:10485000A0156093300470933104809332049093D8
:10486000330400910001109101010115110509F0B7
:104870005AC088E0E2E1F1E0D10101900D928A9501
:10488000E1F70E94A0150091FA031091FB0320911B
:10489000FC033091FD03DC01CB01801B910BA20BCB
:1048A000B30B85369105A105B10508F43FC1809190
:1048B000F903883018F01092F90303C08F5F8093DA
:1048C000F9030E94A0156093FA037093FB03809391
:1048D000FC039093FD038E010F5F1F4FE12CF12C21
:1048E000D8018D918D019091F903292F30E0482F47
:1048F00001C0440F9A95EAF7319521953109277047
:10490000332701C086952A95EAF7482BB70180E046
:1049100090E00E94C10BBFEFEB1AFB0AE8E0EE1635
:10492000F104F1F603C117FF82C088E0EAE1F1E08B
:10493000D10101900D928A95E1F70E94A015C090D7
:104940000004D0900104E0900204F0900304AB0155
:10495000BC014C195D096E097F091195019511097A
:104960002CEE2003C001219F900D11248C599F4FE4
:10497000092E000CAA0BBB0B84179507A607B707D7
:1049800008F0D4C0E090FE03F090FF03FFE0EF16C4
:10499000F1042CF01092FF031092FE033DC047017A
:1049A0002FEF821A920A9092FF038092FE03F194F5
:1049B000E194F1085401C12CD12CC814D90464F538
:1049C00032E0A316B1042CF049E0A416B104D4F4EB
:1049D00007C0C70158E0E516F104A4F40C94B23006
:1049E000F8E0CF16D10474F4C5010197E1E0F0E0DE
:1049F000EC0FFD1FE80FF91F4081B60180E090E049
:104A00000E94C10B6FEFC61AD60A7FEFE71AF70AAA
:104A100081E0A81AB108D1CF0E94A01560930004CC
:104A20007093010480930204909303047FC00D32BD
:104A300091E019072CF080E090E00E94BA1D76C04A
:104A400088E0EAE1F1E0D10101900D928A95E1F769
:104A50000E94A015C0900604D0900704E0900804BE
:104A6000F0900904AB01BC014C195D096E097F0986
:104A70002CEE2003C001219F900D11248C599F4FD3
:104A8000092E000CAA0BBB0B84179507A607B707C6
:104A900008F04CC080910404909105048E3091057B
:104AA0002CF0109205041092040405C00196909316
:104AB00005048093040420910404309105042C30F3
:104AC000310514F488E001C086E047E050E07A0147
:104AD000E21AF30AC12CD12CA82EB12CEA14FB0443
:104AE000DCF44601D7FE04C0882499248C189D0864
:104AF000F101E80DF91D4081B70180E090E00E94CE
:104B0000C10BA1E0CA1AD108B8E08B16910424F4B5
:104B1000EFEFEE1AFE0AE2CF0E94A01560930604A2
:104B20007093070480930804909309040E948018EE
:104B300020E030E040E252E40E943836181614F0CB
:104B40000C94CD2F0E94801820E030E040E752E422
:104B50000E944F33181614F00C946B2E0C94CD2F2A
:104B600088E3E2E2F1E0D10101900D928A95E1F74C
:104B70000E94A0150091360410913704209138044A
:104B800030913904DC01CB01801B910BA20BB30BDC
:104B900085369105A105B10508F499C0D09035047A
:104BA0004DE04D1518F41092350487C056E05D15A0
:104BB00008F462C0D5122BC0109134042091450432
:104BC00030914604C901330FAA0BBB0B9C01AD0108
:104BD00026503F4F4F4F5F4FA7E0B0E00E94A834F0
:104BE00024EF31E040E050E00E9489342830310564
:104BF00014F027E030E037FF02C020E030E0812FE2
:104C000090E02817390754F01F5F1093340468E0D0
:104C1000D69E80011124E12CF12C18C0109234048E
:104C200000E010E020E047E050E0B80180E090E0D4
:104C30000E94430C64E170E080E090E00E94661501
:104C40000F5F1F4F0730110569F7E1CFF701E00F44
:104C5000F11FE20DF31D408150E055954795B701D6
:104C600080E090E00E94C10B7FEFE71AF70A88E02E
:104C7000E816F10459F71EC02D2D38EF32038001DC
:104C80001124E12CF12CF701E00FF11FE859FF4F3F
:104C9000E20DF31D408150E055954795B70180E046
:104CA00090E00E94C10B4FEFE41AF40A58E0E516B9
:104CB000F10449F7D394D09235040E94A015609373
:104CC000360470933704809338049093390400E0DD
:104CD00010E0F7E0EF2EF12C8091340490E00817FB
:104CE00019076CF4B701601B710B21E047E050E03D
:104CF00080E090E00E94430C0F5F1F4FEDCF60E01B
:104D000070E080EC9FE76E966CAF7DAF8EAF9FAF8B
:104D10006E976A966CAF7DAF8EAF9FAF6A976696BF
:104D20006CAF7DAF8EAF9FAF6697AE014A5A5F4FB3
:104D3000BE01665A7F4FCE018E5A9F4F0E94A90C2A
:104D40000E94A0150091020110910301209104011D
:104D500030910501DC01CB01801B910BA20BB30B41
:104D600081319742A105B10508F4F7C48CE3EAE567
:104D7000F1E0D10101900D928A95E1F766968CAC35
:104D80009DACAEACBFAC669729E832E545E053E494
:104D9000C501B4010E9490352B013C0120E030E0B8
:104DA00048EC52E4C501B4010E9490350E940236DD
:104DB0001CE916037001179FF00C1124C501B40102
:104DC0000E9402366701C60ED71E20E030E44CE197
:104DD00056E4C501B4010E9490350E940236DC0100
:104DE000CB014FEF5FEF67E070E00E9479066696B7
:104DF0008CAC9DACAEACBFAC669720E030E44CE12F
:104E000056E4C501B4010E9490350E940236160393
:104E10007001179FF00C112420E030E048EC52E4C0
:104E2000C501B4010E9490350E940236C701860F69
:104E3000971F4FEF5FEF66E070E00E9479064FEF3B
:104E40005FEF65E070E0C6010E94790666968CAC63
:104E50009DACAEACBFAC6697C501B4010E940236F2
:104E6000072E000C880B990B0E9456339B01AC0156
:104E7000C501B4010E94233520E030E048EC52E443
:104E80000E94B5330E940236DC01CB0141E050E0C4
:104E900064E070E00E94790621E047E050E066E0BF
:104EA00070E085E090E00E94430C20E030E048ECA8
:104EB00052E4C301B2010E9490350E9402364B01B8
:104EC0005C012AE0289DC001299D900D112443E03A
:104ED00050E063E070E001960E947906C301B201E0
:104EE0000E940236A2966CAF7DAF8EAF9FAFA297A5
:104EF000940112037001139FF00C1124E60EF71EAB
:104F00004FEF5FEF62E070E0C7010E94790620E09A
:104F100030E048EC52E4C301B2010E94B5332B01EA
:104F20003C0184E6A0964EAD5FADA097849FB00192
:104F3000859F700D1124072E000C880B990B0E9481
:104F400056339B01AC01C301B2010E9423350E947C
:104F50000236DC01CB0141E050E061E070E00E94EC
:104F6000790621E047E050E066E070E082E090E002
:104F70000E94430C2AE5289DC001299D900D112413
:104F80008E0D9F1D64E670E00E94593626E0269F34
:104F90004001279F900C1124C6016AE070E00E9436
:104FA0005936269FC001279F900D1124A0969FAFD0
:104FB0008EAFA097E12CF12C06E067019FEFC91A94
:104FC000D90AF401EE0DFF1DE20DF31D208147E02B
:104FD00050E0B60183E090E00E94430CA096EEAD55
:104FE000FFADA097EE0DFF1DE20DF31D208147E000
:104FF00050E0B60186E090E00E94430C66964CAC0F
:105000005DAC6EAC7FAC669720E030E44CE156E4DA
:10501000C301B2010E9490350E940236160350016E
:10502000179FB00C112420E030E048EC52E4C3019B
:10503000B2010E9490350E940236C501860F971F6B
:105040006AE070E00E945936069FC001079F900DEC
:105050001124820D931DFC01EE0DFF1D208147E000
:1050600050E0B60187E090E00E94430C7601A6E094
:10507000CA16D10409F0A1CF0E94A01560930201C5
:1050800070930301809304019093050166C32091FE
:10509000450430914604C901330FAA0BBB0B9C0198
:1050A000AD0126503F4F4F4F5F4FA6E0B0E00E944A
:1050B000A83424EF31E040E050E00E948934DA0166
:1050C000C9010397A109B1098D3FEFEF9E07D4F005
:1050D0009C01049714F023E030E02115310501F123
:1050E00044F42E3FFFEF3F0789F02F3F3F4FA1F0E1
:1050F00009C02230310509F442C0ACF0233031053B
:1051000009F440C060E088E290E003C063E087E318
:1051100090E00E944C163AC065E086E490E0F9CF3A
:1051200080E090E029C000E010E021E0A80160E00C
:1051300070E087E090E00E94430C21E0A80161E06C
:1051400070E087E090E00E94430C21E0A80162E05B
:1051500070E087E090E00E94430C21E0A80163E04A
:1051600070E087E090E00E94430C0F5F1F4F043017
:105170001105D9F684E090E00E94151707C084E677
:1051800090E002C08CE390E00E94AC152091FA05FB
:105190004AE0822F642F0E944D36682E712C36EF24
:1051A000B3013603C001379F900D1124DC01A20F1B
:1051B000B11DA096BFAFAEAFA0972091FC05822F86
:1051C000642F0E944D36882E912CA4013403C00117
:1051D000359F900D11242C01420E511C0E942E0867
:1051E0008091FC0581110CC08091FA05811108C0E5
:1051F0008091F905811104C083E090E00E947F0C4A
:105200000E94A01540913F04509140049A01220F42
:10521000331F240F351F215F3F4F8901330F220BAE
:10522000330B061717072807390708F022C14E303D
:1052300051053CF4CA0101969093400480933F04C9
:10524000F6C01092400410923F0490913E0481E019
:10525000892780933E040E9489178823B9F18091A1
:1052600082068B3029F090F18551823048F02EC0B3
:1052700060917E0670E080E090E00E9454332AC086
:1052800010917E06612F6F7770E080E090E00E94C1
:10529000563320E030E040E853E40E94B5336B0120
:1052A0007C0160917F0670E080E090E00E945633C0
:1052B000A70196010E9424352DEC3CEC4CEC5DE3FB
:1052C0000E94B53317FF06C0905804C060E070E03C
:1052D00080EC9FE70E940236DC01CB0141E050E008
:1052E00064E070E00E9479060E9480180E940236F5
:1052F000DC01CB0141E050E060E070E00E94790603
:105300001091FF0550910006A3965FAFA3970091FF
:10531000FE05802F67E00E944D36C82ED12CE12C6F
:10532000F12CEC14FD0444F0802F67E00E944D3610
:10533000092FE12CF12C1EC0A12CB12C21E0A501DC
:10534000B70183E090E00E94430C6FEFA61AB60A03
:1053500077E0A716B10491F78FEFE81AF80AE1CFCA
:1053600021E0A701B60183E090E00E94430C9FEF8B
:10537000E91AF90AE016A0F3A3968FADA39767E0A8
:105380000E944D36C82ED12CE12CF12C1EC0A12C30
:10539000B12CE7E0F0E0EE19FF09A896FFAFEEAF01
:1053A000A89721E0A501A8966EAD7FADA89783E0F0
:1053B00090E00E94430CFFEFAF1ABF0A27E0A2164D
:1053C000B10479F73FEFE31AF30AEC14FD04FCF2A1
:1053D000A3968FADA39767E00E944D36092FE12C6D
:1053E000F12C87E090E0DC01AC19BD096D01E016FD
:1053F00058F421E0A701B60183E090E00E94430C3D
:105400004FEFE41AF40AF3CF111101C017E0E12CB9
:10541000F12CE11660F421E0A70165E070E083E083
:1054200090E00E94430C5FEFE51AF50AF2CF8091FD
:105430003E0400913F0410914004A80181110CC06A
:1054400061E070E080E090E00E94701DA80162E0E1
:1054500070E087E090E00BC062E070E087E090E0F1
:105460000E94701DA80161E070E080E090E00E9461
:1054700023070E94A01500913A0410913B0420914B
:105480003C0430913D046B017C01C01AD10AE20A50
:10549000F30A2091FA05822F6AE00E944D3630E02F
:1054A000B901AAE08A9F601971091124A096EEAD96
:1054B000FFADA097E617F70731F4FBEFCF16D10445
:1054C000E104F104F8F026E030E041E050E0A0967D
:1054D0006EAD7FADA09780E00E941B0A2091FA0577
:1054E000822F6AE00E944D36622F70E02AE0829F90
:1054F00060197109112426E030E041E050E081E0BC
:105500000E941B0A8091FA056AE00E944D3690E0E5
:105510006816790631F43BEFC316D104E104F104B7
:10552000B0F022E030E041E050E0B30180E00E94C2
:105530001B0A8091FA056AE00E944D36682F70E0E0
:1055400022E030E041E050E081E00E941B0A20911F
:10555000FC05822F6AE00E944D3630E0A9016AE026
:10556000869F4019510911244416550631F47BEFEA
:10557000C716D104E104F104E0F025E030E042E098
:1055800050E0B20180E00E941B0A2091FC05822FAE
:105590006AE00E944D36622F70E09AE0899F6019A0
:1055A0007109112425E030E042E050E081E00E94E2
:1055B0001B0A8091FC056AE00E944D3690E0881637
:1055C000990631F4ABEFCA16D104E104F104B0F04E
:1055D00021E030E042E050E0B40180E00E941B0A8C
:1055E0008091FC056AE00E944D36682F70E021E052
:1055F00030E042E050E081E00E941B0A0E94A015CA
:1056000060933A0470933B0480933C0490933D0470
:10561000A4C081E5F10111928A95E9F780E28983BE
:105620008A838B8390EE9C838D838E838F8381E925
:105630008A878B878C878D8781E78E8781E18F872B
:1056400081EE888B9CE39B8B84E28C8B8D8B8E8B85
:105650009F8B888F898F8EE18C8F82E18D8F8E8FCB
:105660008F8F8FE388A381E289A38AA394E79DA308
:1056700094E19EA39FA39CE798A790E599A79AA77A
:105680009CE59BA78EA78FA793E298AB95E299AB79
:1056900099E29AAB91E39BAB8CAB8EE38FAB88E046
:1056A00088AF89AF8AAF8BAF8CAF8DAF89E721967A
:1056B0008FAF219789E022968FAF229723968FAFE5
:1056C00023978FE724968FAF249788E425968FAF92
:1056D000259726968FAF26978FE427968FAF27972B
:1056E0000E94A015009141041091420420914304AE
:1056F00030914404DC01CB01801B910BA20BB30B56
:10570000813A9F40A105B10540F15101C12CD12C36
:10571000E12CF12CF501EE0DFF1D4081B701C60112
:105720000E94C10B2FEFE21AF20A38E0E316F104EF
:1057300089F74FEFC41AD40A59E0A50EB11C68E0EE
:10574000C616D10429F70E94A015609341047093F6
:10575000420480934304909344040E94A015009156
:105760008704109188042091890430918A04DC0117
:10577000CB01801B910BA20BB30B81389D48AB452D
:10578000B10508F437C180919004843021F487E09A
:1057900090E00E947F0C68EC70E080E090E00E9456
:1057A000661580E090E0A0ECBFE76A968CAF9DAFF5
:1057B000AEAFBFAF6A9766968CAF9DAFAEAFBFAFCF
:1057C000669789839A83AB83BC83AE014E5A5F4F41
:1057D000BE016A5A7F4FCE0101960E94A90C6981D1
:1057E0007A818B819C810E940936EFE6F4E0048186
:1057F0001581268137810193119321933193A4E080
:10580000E338FA07A1F760938304709384048093CC
:105810008504909386040FE514E0EFE6F4E0AC967F
:10582000FFAFEEAFAC97E7E4F4E0AE96FFAFEEAFBC
:10583000AE97812C912C5401C12CD12C7601A696C7
:105840001CAE1DAE1EAE1FAEA697412C512C3201D0
:10585000AE96EEADFFADAE97219131914191519150
:10586000AE96FFAFEEAFAE97A2962CAF3DAF4EAF68
:105870005FAFA297420E531E641E751EAC96EEAD2E
:10588000FFADAC972191319141915191AC96FFAF11
:10589000EEAFAC97AA962CAF3DAF4EAF5FAFAA97D5
:1058A000A6966CAD7DAD8EAD9FADA697620F731FB2
:1058B000841F951FA6966CAF7DAF8EAF9FAFA69746
:1058C000A2962CAD3DAD4EAD5FADA297CA01B90118
:1058D0000E943D36C60ED71EE81EF91EAA966CAD74
:1058E0007DAD8EAD9FADAA970E943D36860E971E68
:1058F000A81EB91EAE96EEADFFADAE970E171F07F0
:1059000009F0A6CF40926B0450926C0460926D0433
:1059100070926E04A6962CAD3DAD4EAD5FADA697D0
:1059200020936704309368044093690450936A0499
:10593000C0926304D0926404E0926504F09266041D
:1059400080925F0490926004A0926104B09262041D
:10595000A6E0B0E0A50194010E94A8340E9454334F
:105960004B015C01A3019201A6966CAD7DAD8EAD9D
:105970009FADA6970E943D360E9454339B01AC0117
:10598000C501B4010E9423354B015C01A6E0B0E0E3
:10599000A70196010E94A8346B017C01A30192012A
:1059A000C301B2010E943D36A7019601261B370BA9
:1059B000480B590BCA01B9010E9454339B01AC0139
:1059C000C501B4010E94903520E030E040EC50E485
:1059D0000E94B5330E9402367093460460934504DA
:1059E0000E94A015609387047093880480938904B3
:1059F00090938A04809193048111CCC08091060118
:105A000080938F040E94A01500918B0410918C0448
:105A100020918D0430918E04DC01CB01801B910B11
:105A2000A20BB30B89389341A105B10508F4ADC0B1
:105A300000E010E060E0C8010E9416110F5F1F4FE8
:105A400008301105B9F780E10E944F15092E000CAE
:105A5000AA0BBB0B9C01AD0124513109410951092D
:105A6000A5E0B0E00E94A8342CE033E040E050E034
:105A70000E9489342093060133274427552719A211
:105A80008E010F5D1F4FCA01B9012AE030E040E0EE
:105A900050E00E94F234605DD8016E938D012115B3
:105AA00031054105510579F7109769F0FD01019025
:105AB0000020E9F73197AF014A1B5B0BBD0188EF6E
:105AC00094E00E94BA0042E050E063E873E088EF9F
:105AD00094E00E94BA0080910601882309F449C02D
